:100000000C948C020C94BD020C94BD020C94BD02A5
:100010000C94BD020C94BD020C94BD020C94BD0264
:100020000C94BD020C94BD020C94BD020C94BD0254
:100030000C94AB110C94BD020C94BD020C94BD0247
:100040000C94BD020C94BD020C94BD020C94BD0234
:100050000C94BD020C94BD020C94BD020C942C05B2
:100060000C94BD020C94A0050C9476050C94BD0272
:100070000C94BD020C94BD020C94BD020C94BD0204
:100080000C94BD020C94BD020C94BD020C94BD02F4
:100090000C94BD020C94BD020C94BD020C94BD02E4
:1000A0000C94BD020C94BD020C94BD020C94BD02D4
:1000B0000C94BD020C94BD020C94BD020C94BD02C4
:1000C0000C94BD020C94BD020C94BD020C94BD02B4
:1000D0000C94BD020C94BD020C94BD020C94BD02A4
:1000E0000C94BD020C941E040C94DB120C941D03A2
:1000F0000C94EC020C9492000C940F030C94BD0130
:100100000C945B020C94FB020C94A2030C94E80187
:100110000C9400020C94FA010C94BF020C94550349
:100120000C947804CF93DF9300D000D000D01F92BE
:10013000CDB7DEB7E0911E03F0911F031081D12CE3
:10014000C12C112329F00580F681E02DC080D180DB
:100150000E9461080E9457087C01809112039091CF
:100160001303E816F90608F08EC00E94CE06F0923E
:100170001303E09212030E94AA0900913403109124
:1001800035031A86198680E06801F1E1CF0ED11C93
:100190000FB6F8940F92D8015A96FC905A97FF2008
:1001A00009F432C15C964C915C97442301F150E014
:1001B00016968D919C911797840F951F17969C9377
:1001C0008E93169714962D913C911597821793074D
:1001D00038F08D919C91119717969C938E9316975A
:1001E000F80166817781CE0101960E943514FA9458
:1001F000D8015A96FC925A9718968C91882339F018
:10020000C80108960E94A10781110E94E4080F907E
:100210000FBEF980F7FCB1CF0C811D81D8011A9671
:100220008D919C91892B21F0C80102960E94EE05C8
:100230000E9457086C018091120390911303C81615
:10024000D90610F40E94CE06D0921303C092120376
:10025000EFEFEF0DE93008F090CF0E2E000CFF0B02
:10026000D80152969C9152978827E65CFE4F8F4F9B
:100270000C942D14BD01BD010002E801FA01BD017D
:10028000BD010002E801F0921303E0921203112372
:1002900051F0EC14FD0470F00E94AA09B701C601E8
:1002A0000E94A4066ACFE0911C03F0911D03808197
:1002B00061E0811160E000913403109135030FB6C5
:1002C000F8940F92D8015D968C915D978F3F11F451
:1002D0005D961C92F801868D8F3F09F4168E0F9063
:1002E0000FBED8015A968C915A9781113CC05296F4
:1002F000ED91FC91A091D802B091D9021F96FC9388
:10030000EE931E97A091D802B091D9028481958175
:1003100051969C938E9350978091D8029091D902D8
:10032000A481B5810C9613969C938E93129780911D
:10033000D8029091D9020C9695838483E091D802DB
:10034000F091D902C8014196958B848BF80181897F
:100350008F5F818BC6018E199F09662311F08FEF85
:100360009FEF0E94EC06C8010E9472080E94AA0931
:10037000811103CF0E94E40800CF9160F801928BB5
:10038000EA80FB80648575856E0D7F1D9701A6014F
:10039000C8010E945606882309F4EFCED801529670
:1003A0008C91529782FF10C01C966D917C916E0DBE
:1003B0007F1DA601C8010E948006D8015096ED91CC
:1003C000FC91C8011995D9CE8E7FF801828BF5CFAB
:1003D000916052969C9352976A817B811D967C9383
:1003E0006E931C976C0D7D1D9601A601C8010E949D
:1003F0005606C3CE91FD04C0C8010E944C10BDCE6C
:100400009E7FF801928BB9CE29853A85232B19F46A
:100410000F900FBE8FCE811109C08091E3038E83B0
:100420008091E1039091E20398878F830F900FBE34
:100430000E9461080FB6F8940F92F801858D8F3FE6
:1004400009F4158ED8015E968C915E978F3F11F45A
:100450005E961C920F900FBEBE01675F7F4FCE016C
:1004600006960E946E0781111BC0C8010E94670892
:10047000882381F069857A85C6010E944608C801F3
:100480000E9472080E94AA09811102C00E94E40819
:1004900081E07ECEC8010E9472080E94AA09F8CFAE
:1004A000C8010E9472080E94AA09C8010E94670838
:1004B000882371F33FCE8091E20281110BC08091BD
:1004C000E403823010F00E94E4080E940E040E94AF
:1004D000C203F1CF0FB6F8940F92E091E802F091C9
:1004E000E902C681D781CE0102960E94EE05809175
:1004F000FF0281508093FF028091E202815080933D
:10050000E2020F900FBE8F89988D0E944C10CE0191
:100510000E944C10D0CFDB1211241FBECFEFD1E2CE
:10052000DEBFCDBF00E00CBF12E0A0E0B2E0EEE81D
:10053000F8E200E00BBF02C007900D92A83DB107A2
:10054000D9F724E0A8EDB2E001C01D92AD30B207AA
:10055000E1F712E0CCE8D2E000E006C02197010903
:10056000802FFE010E942D14CB38D10780E00807B0
:10057000A9F70E94AE110C9445140C940000AF92A0
:10058000BF92CF92DF92EF92FF920F931F93CF9380
:10059000DF936C017B018B01040F151FEB015E01E2
:1005A000AE18BF08C017D10759F06991D601ED9177
:1005B000FC910190F081E02DC6011995892B79F706
:1005C000C501DF91CF911F910F91FF90EF90DF90C8
:1005D000CF90BF90AF900895FC01538D448D252F8F
:1005E00030E0842F90E0821B930B541710F0CF96CD
:1005F000089501970895FC01918D828D981761F0FF
:10060000A28DAE0FBF2FB11D5D968C91928D9F5F15
:100610009F73928F90E008958FEF9FEF0895FC01F4
:10062000918D828D981731F0828DE80FF11D858DA7
:1006300090E008958FEF9FEF0895FC01918D228D3A
:10064000892F90E0805C9F4F821B91098F739927BF
:10065000089584E493E00E941D0321E0892B09F4AE
:1006600020E0822F0895FC01A48DA80FB92FB11DA1
:10067000A35ABF4F2C91848D90E001968F739927D8
:10068000848FA689B7892C93A089B1898C918370B6
:1006900080648C93938D848D981306C00288F389AF
:1006A000E02D80818F7D80830895EF92FF920F93DC
:1006B0001F93CF93DF93EC0181E0888F9B8D8C8D0E
:1006C00098131AC0E889F989808185FF15C09FB702
:1006D000F894EE89FF896083E889F98980818370C5
:1006E000806480839FBF81E090E0DF91CF911F9174
:1006F0000F91FF90EF900895F62E0B8D10E00F5F95
:100700001F4F0F731127E02E8C8D8E110CC00FB66A
:1007100007FCFACFE889F989808185FFF5CFCE0102
:100720000E943303F1CFEB8DEC0FFD2FF11DE35A47
:10073000FF4FF0829FB7F8940B8FEA89FB89808185
:100740008062CFCFCF93DF93EC01888D8823B9F0FF
:10075000AA89BB89E889F9898C9185FD03C08081CC
:1007600086FD0DC00FB607FCF7CF8C9185FFF2CF49
:10077000808185FFEDCFCE010E943303E9CFDF9169
:10078000CF91089580E090E0892B29F00E94290301
:1007900081110E94000080E090E0892B49F080E008
:1007A00090E0892B29F00E94000081110E94000036
:1007B00080E090E0892B49F080E090E0892B29F0DF
:1007C0000E94000081110E94000080E090E0892BCF
:1007D00049F080E090E0892B29F00E94000081110F
:1007E0000C9400000895FC0101900020E9F7319776
:1007F000AF01481B590BBC0184E493E00C94BF0289
:10080000CF93DF930E94F303EC0189E192E00E9411
:10081000F3038C0F9D1FDF91CF9108958091E0022B
:100820009091E1020E949D0C8CE192E00E940004F4
:100830008091E0029091E1020C94720B8091E002B1
:100840009091E1020E949D0C84E493E00E941D03BC
:100850008C018091E0029091E1020E94720B0115DF
:100860001105C1F1D0E0C0E08091E0029091E10279
:100870000E949D0C84E493E00E94FB027C01809125
:10088000E0029091E1020E94720B8091E00290914F
:10089000E1022FEFE216F206B1F00E949D0C6E2DE0
:1008A00084E493E00E94550389E192E00E94F303FF
:1008B0008091E0029091E1020E94720B21960C1748
:1008C0001D0791F6BBCF0E949D0C89E492E00E9427
:1008D0000004EECF0E94610860E086E090E00E9494
:1008E000EC060E94AA098111A9CF0E94E408A6CFB4
:1008F0008091E0029091E1020E949D0C8CE592E0D3
:100900000E9400048091E0029091E1020E94720B2B
:100910000E94610860E08FE190E00E94EC060E9476
:10092000AA098111E5CF0E94E408E2CFEF92FF927D
:100930000F93CF93DF93E0915403F091550382E03E
:100940008083E0915003F09151031082E0915203B3
:10095000F09153038FEC808310925C03E091580375
:10096000F091590386E08083E0915603F09157039C
:10097000808180618083E0915603F09157038081EC
:1009800088608083E0915603F091570380818068EE
:100990008083E0915603F091570380818F7D80839F
:1009A0008FE190E00E945D10EC01009781F0998347
:1009B000888381E08B8F1C8ECE010E94B4081D823B
:1009C0001C82198218821E82CE010E94720BD09363
:1009D000E102C093E0029EEDE92E92E0F92E00E0E4
:1009E00021E030E040EC50E063E672E08EE194E01C
:1009F0000E947B10813021F485E792E00E94000480
:100A00008CEDE82E82E0F82E00E021E030E040ECB2
:100A100050E06DE972E088E794E00E947B1081303D
:100A2000A9F48091E0029091E1020E949D0C89EA74
:100A300092E00E9400048091E0029091E102DF9137
:100A4000CF910F91FF90EF900C94720BDF91CF91AB
:100A50000F91FF90EF9008951F920F920FB60F9293
:100A600011242F933F938F939F93AF93BF938091C4
:100A7000400390914103A0914203B0914303309110
:100A80003F0323E0230F2D3758F50196A11DB11D1B
:100A900020933F038093400390934103A09342032C
:100AA000B093430380913B0390913C03A0913D039D
:100AB000B0913E030196A11DB11D80933B0390931D
:100AC0003C03A0933D03B0933E03BF91AF919F9130
:100AD0008F913F912F910F900FBE0F901F901895FF
:100AE00026E8230F0296A11DB11DD2CF1F920F92AF
:100AF0000FB60F9211240BB60F922F933F934F9383
:100B00005F936F937F938F939F93AF93BF93EF9375
:100B1000FF9384E493E00E943303FF91EF91BF9130
:100B2000AF919F918F917F916F915F914F913F9185
:100B30002F910F900BBE0F900FBE0F901F90189526
:100B40001F920F920FB60F9211240BB60F922F9394
:100B50008F939F93EF93FF93E0915403F09155038C
:100B60008081E0915A03F0915B0382FD1DC090816A
:100B700080915D038F5F8F7320915E03821741F038
:100B8000E0915D03F0E0EC5BFC4F958F80935D039B
:100B9000FF91EF919F918F912F910F900BBE0F902E
:100BA0000FBE0F901F9018958081F2CFE091160331
:100BB000F09117038081811107C08FEF9FEF909311
:100BC0003803809337030895E0911603F0911703DB
:100BD0000580F681E02D80819181F1CFCF93DF9365
:100BE000FC01A085B1858281938124813581EC014E
:100BF0003D832C83C481D5819B838A8311968D91FB
:100C00009C9112978E179F0721F41296DC93CE9336
:100C10001197118610868C9181508C938C91DF9165
:100C2000CF9108950F931F93CF93DF938C01FB0116
:100C300080819181D80113968F3F9807F1F4E801E4
:100C4000AF81B88512968D919C911397938382837F
:100C5000EC01FD83EC83B583A4831396FC93EE93A0
:100C6000129711870087F80180818F5F8083DF9161
:100C7000CF911F910F910895D90112962D913C911A
:100C80001397E9014881598184179507A8F7DACFAE
:100C9000FC010396928381832FEF3FEF34832383FC
:100CA000968385839087878310820895FC017383E0
:100CB0006283918780874617570790F0421B530B3A
:100CC0008485958548175907C8F4BF016E5F7F4F2B
:100CD00080911C0390911D030E94120680E00895EC
:100CE0004217530718F46217730740F4BF016E5F91
:100CF0007F4F80911E0390911F03EECF81E00895F6
:100D0000EF92FF920F931F93CF93DF93EC018B0130
:100D10007A016C857D85600F711F9801A701CE0156
:100D20000E945606811107C0DF91CF911F910F914C
:100D3000FF90EF9008958C859D85080F191FE88915
:100D4000F989CE011995E5CFEF92FF920F931F938A
:100D5000CF93DF938C017B01E0911E03F0911F0381
:100D60000580F681E02DC681D781CE0102960E94D2
:100D7000EE058A8982FF0FC0A701B801CE010E944B
:100D80008006E889F989CE01DF91CF911F910F91FB
:100D9000FF90EF9019948E7F8A8BF3CFE0911E0322
:100DA000F0911F03808181110DC080911C039091EF
:100DB0001D0390931F0380931E03F0931D03E09384
:100DC0001C0308950580F681E02D6FEF7FEF808191
:100DD00091810E94A406E2CFFF920F931F93CF93BD
:100DE000DF93EC01F62E0091E1031091E203809174
:100DF000D8029091D90202960E94EE05CF3FDC07FF
:100E0000E9F5FF20D9F1E0910A03F0910B03A091DD
:100E1000D802B091D9021596FC93EE931497A09145
:100E2000D802B091D9028481958117969C938E93B4
:100E300016978091D8029091D902A481B58102962B
:100E400013969C938E9312978091D8029091D90219
:100E5000029695838483E091D802F091D90289E0CB
:100E600093E093878287809109038F5F80930903C2
:100E7000DF91CF911F910F91FF900895C00FD11F67
:100E8000E091D802F091D902D383C2836091D80255
:100E90007091D902C017D10768F480911403909122
:100EA00015036E5F7F4FDF91CF911F910F91FF90E0
:100EB0000C94120680911603909117036E5F7F4F7A
:100EC0000E9412068091370390913803C817D90702
:100ED00078F6D0933803C0933703CACFFC01DB0107
:100EE0000FB6F8940F924091E1035091E2032D91D7
:100EF0003C9111972F3F320711F1818192816091CE
:100F0000E3037081761749F04817590730F01D92B6
:100F10001C9281E00F900FBE0895481B590B421799
:100F20005307A8F7241B350B2D933C938091E303C3
:100F300080838091E1039091E2039283818380E03A
:100F4000E9CFCF93DF93DC011596ED91FC910680FC
:100F5000F781E02DA489B589868597852089318917
:100F6000EC013D832C83C089D1899B838A83CF0187
:100F70000C9611962D913C9112972817390721F460
:100F80001296DC93CE931197158A148A2C912150D6
:100F90002C9320911B03211157C0A285B385848116
:100FA000958126813781EC013D832C83C681D781D1
:100FB0009B838A83CF01029611962D913C911297C3
:100FC0002817390721F41296DC93CE9311971386D4
:100FD00012862C9121502C93C689209108042C173D
:100FE00010F4C093080429E02C9FE0011124CC5197
:100FF000DC4F0980DA81C02DD583C4834C815D81AB
:1010000057834683AC81BD8113969C938E93129730
:101010009D838C83A689A29FD0011124AC51BC4F23
:10102000B387A2878C918F5F8C93A091D802B091E7
:10103000D902968956968C91891730F581E0809374
:101040001A03DF91CF910895A0910103B09102039B
:10105000B787A68714962D913C911597318B208BDD
:101060001496CD91DC9115979B838A8315969C935A
:101070008E93149780E093E0958B848B809100038E
:101080008F5F80930003D1CF80E0DBCFCF93DF93DE
:10109000EB016091D8027091D902645F7F4F0E948A
:1010A000120661E0CE01DF91CF910C94EC060FB6F1
:1010B000F8940F928091E1039091E2030F900FBE9C
:1010C000089580911B038F5F80931B0308950FB6D3
:1010D000F8940F92FC01928D0F900FBE81E0911158
:1010E00080E00895EF92FF920F931F93CF93DF93C9
:1010F000EC010FB6F8940F921E8D7C0181E1E80E91
:10110000F11C01E01116D4F08FEF8E8F0F900FBEFF
:101110000FB6F8940F921D8D7E0188E0E80EF11C49
:1011200001E01116B4F08FEF8D8F0F900FBEDF919D
:10113000CF911F910F91FF90EF9008958989882397
:1011400019F3C7010E94A107811100931A031150DE
:10115000D9CF8885882339F3C7010E94A10781115F
:1011600000931A031150DDCFCF93DF93EC010FB63C
:10117000F8940F92888199812B8D4C8DBC01249F0E
:10118000600D711D11247D836C831A8E9B838A836D
:101190002150330B429FB001439F700D1124860FE5
:1011A000971F9F838E838FEF8D8F8E8FCE01089632
:1011B0000E944806CE0141960E9448060F900FBE3D
:1011C00081E0DF91CF9108950F920FB6F8940F92BE
:1011D0000BB60F920CB60F921F9211242F923F92D2
:1011E0004F925F926F927F928F929F92AF92BF9237
:1011F000CF92DF92EF92FF920F931F932F933F9323
:101200004F935F936F937F938F939F93AF93BF930E
:10121000CF93DF93EF93FF93A091D802B091D902BF
:101220000DB60D920EB60D9280911B03882321F00E
:1012300081E080931A035FC010921A03A091D80234
:10124000B091D902E091D802F091D9022D913C9150
:101250008789908D82179307A8F08091D80290918A
:10126000D9028091D8029091D902279A2F9A2FEF14
:1012700087EA91E6215080409040E1F700C00000ED
:101280001F9AF5CF2091080489E001C02150422F18
:1012900050E0849FF001859FF00D1124EC51FC4F2C
:1012A0009081992399F3A181B28112960D90BC91FE
:1012B000A02DB283A183289FC001112489519C4F86
:1012C000A817B90729F412968D919C919283818376
:1012D00089E0849FF001859FF00D1124EC51FC4FB3
:1012E0000180F281E02D868197819093D9028093CD
:1012F000D80220930804A091D802B091D902CD91D0
:10130000CDBFDD91DEBFFF91EF91DF91CF91BF9116
:10131000AF919F918F917F916F915F914F913F918D
:101320002F911F910F91FF90EF90DF90CF90BF9082
:10133000AF909F908F907F906F905F904F903F9075
:101340002F901F900F900CBE0F900BBE0F900FBEF2
:101350000F9008958F929F92BF92CF92DF92EF925B
:10136000FF920F931F93CF93DF930FB6F8940F92D2
:1013700080911B03815080931B0380911B03882362
:1013800079F080E00F900FBEDF91CF911F910F9108
:10139000FF90EF90DF90CF90BF909F908F90089537
:1013A0008091FF02882369F3E0900503F090060323
:1013B000F0E0E0E039E041E08091000381115EC09F
:1013C000EF2B11F00E94D605E0901803F09019035E
:1013D000E114F10409F47DC189E0D82ECC24C39432
:1013E0000FEF1FEF80911B03811161C1C091E103D9
:1013F000D091E2034E018FEF881A980A9092E2038F
:101400008092E10381149104B9F4809116039091C4
:101410001703209114033091150330931703209381
:10142000160390931503809314038091E3038F5F59
:101430008093E3030E94D60580913703909138038F
:10144000B12C8816990608F026C1E091D802F091D7
:10145000D902E689DE9EF0011124EC51FC4F808117
:10146000823010F0BB24B39480911A03811103C021
:10147000BB2009F425C1C0921A0322C1D7011696D8
:10148000ED91FC91A489B5896685778580899189DC
:10149000EB019D838C8380899189EC017B836A8336
:1014A000BF01645F7F4F11960D911C911297061733
:1014B000170721F412969C938E931197158A148A1C
:1014C0008C9181508C93A285B385848195816681AE
:1014D0007781EC017D836C8366817781EB019B834F
:1014E0008A83CF01029611960D911C9112970817CD
:1014F000190721F412967C936E9311971386128626
:101500002C9121502C93A689209108042A1710F4BD
:10151000A09308043A9FD0011124AC51BC4F1196FE
:101520000D90BC91A02DB583A48314966D917C91F0
:1015300015977783668314966D917C911597EB01CF
:101540009B838A8315969C938E9314979689939F79
:10155000D0011124AC51BC4FB387A2878C918F5F0F
:101560008C93A091D802B091D90256968C9198177D
:1015700008F422CF40931A031FCFE0911603F09195
:1015800017030580F681E02D0680F781E02D82812A
:1015900093818816990628F4909338038093370333
:1015A00054CFC285D3858481958126813781DC0122
:1015B00015963C932E93149726813781D901139663
:1015C0009C938E931297CF01029649815A814817B6
:1015D000590711F43A8329831386128628812150F2
:1015E0002883A489B5891097F9F026853785408925
:1015F0005189E9015D834C8340895189EA013B832C
:101600002A8311966D917C9112979F01245F3F4F21
:101610006217730721F412965C934E931197158A03
:10162000148A2C9121502C93A689209108042A1702
:1016300010F4A0930804DA9ED0011124AC51BC4FE1
:1016400011960D90BC91A02DB583A48314962D9175
:101650003C9115973783268314962D913C911597CD
:10166000E9019B838A8315969C938E9314979689A0
:101670009D9DD0011124AC51BC4FB387A2878C91A2
:101680008F5F8C93E091D802F091D90286899817E8
:1016900010F0BB24B394E0911603F09117038081FE
:1016A00081116BCF1093380300933703CECE809116
:1016B00018039091190301969093190380931803CE
:1016C000D1E0ED1AF10809F08DCE109219031092B5
:1016D000180380911A03882309F453CE0E94E4086A
:1016E00081E050CEAF92BF92DF92EF92FF920F93C4
:1016F0001F93CF93DF9300D01F921F92CDB7DEB719
:101700008C011D821C8280E0780198E0E90EF11CBA
:101710000FB6F8940F92D8015A962C915A975B966F
:101720009C915B97291708F0B0C05A96DC905A97A5
:101730005C964C915C9741118CC08D919C91892B4A
:1017400011F080E00AC0F801E480F580E114F104B2
:1017500031F580E0F80115821482D394D8015A96AD
:10176000DC925A9751969C91992321F0C801419699
:101770000E94A10781110E94E4080F900FBE81E032
:101780000F900F900F900F900F90DF91CF911F91BE
:101790000F91FF90EF90DF90BF90AF900895D70129
:1017A00092968C919297815092968C93929756969E
:1017B0002C91569791969C91291759F28111C9CF76
:1017C0005701B2E0AB0EB11CC5010E94EE05F70156
:1017D00081A1868B482F50E024E030E0241B350B9C
:1017E0003587248790910804981710F48093080493
:1017F00089E0849FD001859FB00D1124AC51BC4F6E
:1018000011960D90BC91A02DF701B583A483149679
:101810002D913C911597378326831496ED91FC9179
:101820001597B382A2821596BC92AE921497D701F7
:101830005696EC915697E89FF0011124EC51FC4F1D
:101840001B96FC93EE931A9780818F5F808381E0D3
:1018500081CF50E070E060E012968D919C910E94E3
:101860003514F801848D22813381820F932F911DCD
:1018700093838283248135818217930708F461CF93
:1018800080819181938382835CCF2C813D81232B46
:1018900021F40F900FBE80E073CF811109C08091B9
:1018A000E30389838091E1039091E2039B838A8320
:1018B0000F900FBE0E9461080FB6F8940F92F801C6
:1018C000858D8F3F09F4158ED8015E968C915E97B9
:1018D0008F3F11F45E961C920F900FBEBE016C5F9D
:1018E0007F4FCE0101960E946E07811120C00FB676
:1018F000F8940F92F801928D838D0F900FBE98137C
:1019000010C06C817D81C7010E944608C8010E94F9
:1019100072080E94AA09811102C00E94E40881E0B5
:10192000F7CEC8010E9472080E94AA09F8CFC80128
:101930000E9472080E94AA09AECF7F928F929F9256
:10194000AF92BF92CF92DF92EF92FF920F931F93CD
:10195000CF93DF9300D01F921F92CDB7DEB78C01DB
:101960008FEF9FEF9D838C83D12C90E0580121E174
:10197000A20EB11C89E0782E24E0822E912C0FB6A5
:10198000F8940F92D8015A968C915A97882309F4AB
:1019900040C081505A968C935A978D919C91892B77
:1019A000A1F48091D8029091D902892B39F0E0916D
:1019B000D802F091D90282A18F5F82A38091D802D0
:1019C0009091D902F80195838483D80118968C915F
:1019D000882339F0C80108960E94A10781110E944E
:1019E000E4080F900FBEDD24D3948D2D0F900F903F
:1019F0000F900F900F90DF91CF911F910F91FF905B
:101A0000EF90DF90CF90BF90AF909F908F907F909E
:101A100008952C813D81232B21F40F900FBED12CF2
:101A2000E4CF911109C08091E30389838091E103A0
:101A30009091E2039B838A830F900FBE0E946108FE
:101A40000FB6F8940F92F801858D8F3F09F4158E2B
:101A5000D8015E968C915E978F3F11F45E961C9232
:101A60000F900FBEBE016C5F7F4FCE0101960E94AA
:101A70006E078111AEC0C8010E946708882309F46F
:101A8000A2C0F80180819181892B09F076C00FB640
:101A9000F8940F92E480F580E114F10409F491C008
:101AA000F7018689E091D802F091D90296898917C9
:101AB00008F07BC0D7011C962D913C911D9737FDF6
:101AC0000CC0E091D802F091D90296899401291BAB
:101AD00031091D963C932E931C97879DC0011124BC
:101AE0008C519C4FF701228533852817390709F05F
:101AF00054C06701F2E0CF0ED11CC6010E94EE0572
:101B0000E091D802F091D902E689D7015696EC937C
:101B1000809108048E1710F4E09308047E9EF00173
:101B20001124EC51FC4F0180F281E02DD701159674
:101B3000FC93EE9314978481958117969C938E93D2
:101B40001697A481B5811396DC92CE921297D58216
:101B5000C482D7015696EC915697E79DF001112467
:101B6000EC51FC4F1B96FC93EE931A9780818F5F8C
:101B70008083DD24D3940F900FBE6C817D81C501DD
:101B80000E944608C8010E9472080E94AA09811199
:101B900002C00E94E40891E0F2CEE091D802F091F8
:101BA000D9028689F701868BE4CFE091D802F091C3
:101BB000D902DD24D394D70191969C9186899817F8
:101BC000D0F2D12CD8CFC8010E9472080E94AA0975
:101BD000E2CFC8010E9472080E94AA09C8010E94AF
:101BE00067088823C1F2DD2009F4FFCE0FB6F89410
:101BF0000F92F8018189882309F47BC00688F78950
:101C0000E02D908184E0891BD80114960D911C91E0
:101C10000115110509F401CFF80191A1981708F4F5
:101C2000982FD80156968C915697981709F4F5CEAF
:101C300092962C919297213009F0EFCE56969C9374
:101C400056971C962D913C911D9737FD08C024E0B6
:101C500030E0291B31091D963C932E931C97B9E067
:101C60008B9FC00111248C519C4FF8012285338534
:101C70002817390709F0D1CE7801F2E0EF0EF11CF8
:101C8000C7010E94EE05F801A689809108048A1711
:101C900010F4A093080489E08A9FD0011124AC516C
:101CA000BC4F11960D90BC91A02DF801B583A48373
:101CB00014962D913C911597378326831496ED91B8
:101CC000FC911597F382E2821596FC92EE9214979E
:101CD000D8015696EC915697E89FF0011124EC51EB
:101CE000FC4F1B96FC93EE931A9780818F5F808345
:101CF00094CE80E089CF0F920FB6F8940F920BB676
:101D00000F920CB60F921F9211242F923F924F9276
:101D10005F926F927F928F929F92AF92BF92CF927B
:101D2000DF92EF92FF920F931F932F933F934F9366
:101D30005F936F937F938F939F93AF93BF93CF9353
:101D4000DF93EF93FF93A091D802B091D9020DB623
:101D50000D920EB60D9213BE80911B038111F9C036
:101D60008091E1039091E20301969093E2038093C6
:101D7000E103009781F520911603309117034091FC
:101D80001403509115035093170340931603309397
:101D90001503209314032091E3032F5F2093E303A3
:101DA000E0911603F09117032081211107C02FEF56
:101DB0003FEF30933803209337030DC0E0911603B3
:101DC000F09117030580F681E02D20813181309359
:101DD000380320933703209137033091380382175B
:101DE000930710F420E0A1C020E039E0D32EE09169
:101DF0001603F09117033081311107C08FEF9FEF69
:101E0000909338038093370390C0E0911603F091CC
:101E100017030580F681E02D0680F781E02D4281D1
:101E200053818417950728F4509338034093370360
:101E30007CC0A285B3854481558166817781EA01A2
:101E40007D836C8366817781EB015B834A83AF017D
:101E50004E5F5F4F11960D911C9112970417150755
:101E600021F412967C936E931197138612863C91FF
:101E700031503C93A489B5891097F9F06685778530
:101E800000891189EB011D830C8300891189E80108
:101E90007B836A831196ED90FC901297BF01645F7B
:101EA0007F4FE616F70621F412961C930E931197B6
:101EB000158A148A3C9131503C93A68930910804CC
:101EC0003A1710F4A0930804DA9ED0011124AC5103
:101ED000BC4F11960D90BC91A02DB583A483149690
:101EE0006D917C9115977783668314966D917C91A3
:101EF0001597EB015B834A8315965C934E93149779
:101F000046894D9DD0011124AC51BC4FB387A287A7
:101F10003C913F5F3C93E091D802F091D902368921
:101F2000431708F464CF21E062CFE091D802F0912A
:101F3000D902E689D9E0ED9FF0011124EC51FC4F64
:101F40008081823008F021E080911A0381110EC057
:101F50000AC0809118039091190301969093190378
:101F6000809318036AC0222309F467C080911B0381
:101F7000882321F081E080931A035FC010921A0336
:101F8000A091D802B091D902E091D802F091D90283
:101F90002D913C918789908D82179307A8F08091AD
:101FA000D8029091D9028091D8029091D902279AB3
:101FB0002F9A2FEF87EA91E6215080409040E1F779
:101FC00000C000001F9AF5CF2091080489E001C0ED
:101FD0002150422F50E0849FF001859FF00D112485
:101FE000EC51FC4F9081992399F3A181B281129613
:101FF0000D90BC91A02DB283A183289FC001112414
:1020000089519C4FA817B90729F412968D919C917C
:102010009283818389E0849FF001859FF00D1124D4
:10202000EC51FC4F0180F281E02D868197819093E5
:10203000D9028093D80220930804A091D802B091CD
:10204000D902CD91CDBFDD91DEBFFF91EF91DF9140
:10205000CF91BF91AF919F918F917F916F915F9140
:102060004F913F912F911F910F91FF90EF90DF9033
:10207000CF90BF90AF909F908F907F906F905F9028
:102080004F903F902F901F900F900CBE0F900BBE63
:102090000F900FBE0F900895CF93DF93009751F0EC
:1020A000EC010E946108CE010E94A413DF91CF9140
:1020B0000C94AA09DF91CF910895CF93DF93EC019F
:1020C0000E946108CE010E940813EC010E94AA0937
:1020D000209769F4279A2F9A2FEF80E792E02150FA
:1020E00080409040E1F700C000001F9AF5CFCE017C
:1020F000DF91CF9108955F926F927F928F929F921E
:10210000AF92BF92CF92DF92EF92FF920F931F9305
:10211000CF93DF93782E892E562E672E6A01922E4A
:10212000132FCA010E945D105C01892B09F4F0C0D5
:1021300088E290E00E945D10EC01892B09F4E5C073
:1021400088E2DE011D928A95E9F7B88EAF8AA60172
:1021500065EA70E0C5010E943E14B1E0CB1AD108D7
:10216000EF89F88DEC0DFD1D652D762DCE0149967C
:102170009B01285F3F4FDB014D91BD01DC014D9379
:10218000CD01AB0141505109DA014C91442319F0C2
:102190006217730781F718A20E8B09A31B861A8694
:1021A0001D8A1C8AD987C88784E090E0801B91092A
:1021B0009D878C87DB8BCA8B7082DF0111978C9295
:1021C00011971C9211971C92119780E88C9311978C
:1021D0001C9211971C9211971C9257979C921197E1
:1021E0001C93B697F983E883F701D183C0830FB6B8
:1021F000F8940F928091FF028F5F8093FF0280918D
:10220000D8029091D902892B09F093C0D093D902BA
:10221000C093D8028091FF02813081F584EE93E073
:102220000E9448068DEE93E00E94480686EF93E0F8
:102230000E9448068FEF93E00E94480685EF92E0E7
:102240000E9448068CEE92E00E94480680E093E0EF
:102250000E94480683EE92E00E94480689E093E0DF
:102260000E94480685EF92E090931703809316032F
:102270008CEE92E090931503809314038091FE02FC
:102280008F5F8093FE02AE89809108048A1710F454
:10229000A093080429E02A9FD0011124AC51BC4F1F
:1022A00011960D90BC91A02DBD83AC8314968D9199
:1022B0009C9115979F838E831496ED91FC911597B1
:1022C000CE0102969383828315969C938E931497E6
:1022D000EE89E29FF0011124EC51FC4FFB87EA8765
:1022E00080818F5F80830F900FBE8091360388239B
:1022F00051F0E091D802F091D90296898E89981711
:1023000010F40E94E40881E004C0C5010E944C1052
:102310008FEFDF91CF911F910F91FF90EF90DF90A2
:10232000CF90BF90AF909F908F907F906F905F9075
:102330000895809136038111A1CFE091D802F091E8
:10234000D90296898E89891708F498CFD093D9023B
:10235000C093D80293CF0E947B0E1895789484B5D1
:10236000826084BD84B5816084BD85B5826085BD91
:1023700085B5816085BD80916E00816080936E001F
:102380001092810080918100826080938100809111
:1023900081008160809381008091800081608093C2
:1023A00080008091B10084608093B1008091B00082
:1023B00081608093B0008091910082608093910051
:1023C0008091910081608093910080919000816064
:1023D000809390008091A10082608093A100809101
:1023E000A10081608093A1008091A0008160809312
:1023F000A0008091210182608093210180912101C0
:10240000816080932101809120018160809320016F
:1024100080917A00846080937A0080917A00826053
:1024200080937A0080917A00816080937A00809115
:102430007A00806880937A001092C1002091050292
:10244000309106028FEF91E2821B930B9093020270
:10245000809301020E94960499E3E92E93E0F92EFD
:1024600000E030E020E040EC50E06BEC72E08BE507
:1024700092E00E947B10813009F094C00FB6F8946E
:102480000F928091340390913503892B49F589E2AD
:1024900093E00E94480680E293E00E94480689E2A9
:1024A00093E090931F0380931E0380E293E0909348
:1024B0001D0380931C0381E590E00E945D10EC01F8
:1024C000009751F04F96998388838AE08B8F85E03F
:1024D0008C8FCE010E94B408D0933503C09334038F
:1024E0000F900FBE8091340390913503892B09F42E
:1024F00059C082E3E82E83E0F82E03E030E020E0CC
:1025000045E550E060ED72E082E990E00E947B10CA
:10251000813009F047C0F8942FEF3FEF3093380334
:1025200020933703809336031092E2031092E10365
:10253000A89588E190EC0FB6F894A8958093600078
:102540000FBE90936000A091D802B091D902CD91B6
:10255000CDBFDD91DEBFFF91EF91DF91CF91BF91B4
:10256000AF919F918F917F916F915F914F913F912B
:102570002F911F910F91FF90EF90DF90CF90BF9020
:10258000AF909F908F907F906F905F904F903F9013
:102590002F901F900F900CBE0F900BBE0F900FBE90
:1025A0000F900895809100020E9496040E940E04EC
:1025B0000E94C203FBCFE4E4F3E01382128288EEB0
:1025C00093E0A0E0B0E084839583A683B7838BE09B
:1025D00092E09183808385EC90E09587848784ECFA
:1025E00090E09787868780EC90E0918B808B81ECE0
:1025F00090E0938B828B82EC90E0958B848B86ECC1
:1026000090E0978B868B118E128E138E148E089508
:102610000F931F93CF93DF938230910510F482E0E4
:1026200090E0E0910B04F0910C0430E020E0B0E089
:10263000A0E0309799F42115310509F44AC0281B10
:10264000390B24303105D8F58A819B8161157105DC
:1026500089F1FB0193838283FE0111C04081518186
:102660000281138148175907E0F04817590799F478
:10267000109761F012960C93129713961C93329652
:10268000CF01DF91CF911F910F91089500930B041B
:1026900010930C04F4CF2115310551F04217530764
:1026A00038F0A901DB019A01BD01DF01F801C1CFBA
:1026B000EF01F9CF90930C0480930B04CDCFFE0172
:1026C000E20FF31F819391932250310939832883BC
:1026D000D7CF2091090430910A04232B41F4209193
:1026E00003023091040230930A04209309042091DC
:1026F0000102309102022115310541F42DB73EB798
:102700004091050250910602241B350BE09109040B
:10271000F0910A04E217F307A0F42E1B3F0B2817D1
:10272000390778F0AC014E5F5F4F2417350748F04A
:102730004E0F5F1F50930A044093090481939193B5
:102740009FCFF0E0E0E09CCFCF93DF930097E9F0DC
:10275000FC01329713821282A0910B04B0910C04F9
:10276000ED0130E020E01097A1F420813181820F4B
:10277000931F2091090430910A042817390709F0A2
:1027800061C0F0930A04E0930904DF91CF910895AA
:10279000EA01CE17DF07E8F54A815B819E0141150A
:1027A0005105B1F7E901FB83EA8349915991C40FBF
:1027B000D51FEC17FD0761F4808191810296840F8B
:1027C000951FE90199838883828193819B838A8302
:1027D000F0E0E0E012968D919C9113970097B9F587
:1027E0002D913C911197CD010296820F931F20915C
:1027F000090430910A042817390739F6309751F542
:1028000010920C0410920B04B0930A04A0930904D4
:10281000BCCFD383C28340815181840F951FC817D9
:10282000D90761F44E5F5F4F88819981480F591F26
:10283000518340838A819B81938382832115310553
:1028400009F0B0CFF0930C04E0930B049ECFFD0190
:10285000DC01C0CF13821282D7CFEE0FFF1F881F7B
:102860008BBF0790F691E02D1994FB01DC0102C0AB
:1028700001900D9241505040D8F70895DC0101C0FD
:0E2880006D9341505040E0F70895F894FFCF5B
:10288E000300000D048000000000005503BF02ECA1
:10289E0002A2031D03FB020F030D0A004D656D6FAF
:1028AE007279204572726F72205363686564756C1D
:1028BE0065722042726F6B652120506C6561736585
:1028CE002052657374617274004572726F72205378
:1028DE00657269616C205265616421005365636F96
:1028EE006E64007653657269616C506172736572C5
:1028FE005461736B007653657269616C50617273CB
:10290E0065725461736B2043726561746564205304
:10291E0075636365737366756C6C792100765365A8
:10292E00636F6E645461736B00765365636F6E6490
:10293E005461736B204372656174656420537563D3
:10294E006365737366756C6C79210049444C450060
:08295E00546D722053766300F2
:00000001FF
